{
  "contractName": "Energy",
  "abi": [
    {
      "inputs": [
        {
          "name": "_name",
          "type": "string"
        },
        {
          "name": "_symbol",
          "type": "string"
        },
        {
          "name": "_totalCoin",
          "type": "uint256"
        }
      ],
      "payable": false,
      "stateMutability": "nonpayable",
      "type": "constructor"
    },
    {
      "anonymous": false,
      "inputs": [
        {
          "indexed": true,
          "name": "_from",
          "type": "address"
        },
        {
          "indexed": true,
          "name": "_to",
          "type": "address"
        },
        {
          "indexed": false,
          "name": "_value",
          "type": "uint256"
        }
      ],
      "name": "Transfer",
      "type": "event"
    },
    {
      "anonymous": false,
      "inputs": [
        {
          "indexed": true,
          "name": "_owner",
          "type": "address"
        },
        {
          "indexed": true,
          "name": "_spender",
          "type": "address"
        },
        {
          "indexed": false,
          "name": "_value",
          "type": "uint256"
        }
      ],
      "name": "Approval",
      "type": "event"
    },
    {
      "anonymous": false,
      "inputs": [
        {
          "indexed": true,
          "name": "to",
          "type": "address"
        },
        {
          "indexed": false,
          "name": "value",
          "type": "uint256"
        }
      ],
      "name": "Mint",
      "type": "event"
    },
    {
      "anonymous": false,
      "inputs": [],
      "name": "MintFinished",
      "type": "event"
    },
    {
      "anonymous": false,
      "inputs": [
        {
          "indexed": true,
          "name": "from",
          "type": "address"
        },
        {
          "indexed": false,
          "name": "value",
          "type": "uint256"
        }
      ],
      "name": "Burn",
      "type": "event"
    },
    {
      "constant": true,
      "inputs": [],
      "name": "totalSupply",
      "outputs": [
        {
          "name": "",
          "type": "uint256"
        }
      ],
      "payable": false,
      "stateMutability": "view",
      "type": "function"
    },
    {
      "constant": true,
      "inputs": [
        {
          "name": "_owner",
          "type": "address"
        }
      ],
      "name": "balanceOf",
      "outputs": [
        {
          "name": "",
          "type": "uint256"
        }
      ],
      "payable": false,
      "stateMutability": "view",
      "type": "function"
    },
    {
      "constant": false,
      "inputs": [
        {
          "name": "_to",
          "type": "address"
        },
        {
          "name": "_value",
          "type": "uint256"
        }
      ],
      "name": "transfer",
      "outputs": [
        {
          "name": "",
          "type": "bool"
        }
      ],
      "payable": false,
      "stateMutability": "nonpayable",
      "type": "function"
    },
    {
      "constant": false,
      "inputs": [
        {
          "name": "_from",
          "type": "address"
        },
        {
          "name": "_to",
          "type": "address"
        },
        {
          "name": "_value",
          "type": "uint256"
        }
      ],
      "name": "transferFrom",
      "outputs": [
        {
          "name": "",
          "type": "bool"
        }
      ],
      "payable": false,
      "stateMutability": "nonpayable",
      "type": "function"
    },
    {
      "constant": false,
      "inputs": [
        {
          "name": "_spender",
          "type": "address"
        },
        {
          "name": "_value",
          "type": "uint256"
        }
      ],
      "name": "approve",
      "outputs": [
        {
          "name": "",
          "type": "bool"
        }
      ],
      "payable": false,
      "stateMutability": "nonpayable",
      "type": "function"
    },
    {
      "constant": true,
      "inputs": [
        {
          "name": "_owner",
          "type": "address"
        },
        {
          "name": "_spender",
          "type": "address"
        }
      ],
      "name": "allowance",
      "outputs": [
        {
          "name": "",
          "type": "uint256"
        }
      ],
      "payable": false,
      "stateMutability": "view",
      "type": "function"
    },
    {
      "constant": false,
      "inputs": [
        {
          "name": "_to",
          "type": "address"
        },
        {
          "name": "_amount",
          "type": "uint256"
        }
      ],
      "name": "mint",
      "outputs": [
        {
          "name": "",
          "type": "bool"
        }
      ],
      "payable": false,
      "stateMutability": "nonpayable",
      "type": "function"
    },
    {
      "constant": false,
      "inputs": [],
      "name": "finishMinting",
      "outputs": [
        {
          "name": "",
          "type": "bool"
        }
      ],
      "payable": false,
      "stateMutability": "nonpayable",
      "type": "function"
    },
    {
      "constant": false,
      "inputs": [
        {
          "name": "_value",
          "type": "uint256"
        }
      ],
      "name": "burn",
      "outputs": [
        {
          "name": "success",
          "type": "bool"
        }
      ],
      "payable": false,
      "stateMutability": "nonpayable",
      "type": "function"
    }
  ],
  "bytecode": "0x60806040526040805190810160405280600681526020017f456e65726779000000000000000000000000000000000000000000000000000081525060019080519060200190620000519291906200028c565b506040805190810160405280600381526020017f454e450000000000000000000000000000000000000000000000000000000000815250600290805190602001906200009f9291906200028c565b506000600460006101000a81548160ff021916908315150217905550348015620000c857600080fd5b5060405162000ecf38038062000ecf83398101806040526060811015620000ee57600080fd5b8101908080516401000000008111156200010757600080fd5b828101905060208101848111156200011e57600080fd5b81518560018202830111640100000000821117156200013c57600080fd5b505092919060200180516401000000008111156200015957600080fd5b828101905060208101848111156200017057600080fd5b81518560018202830111640100000000821117156200018e57600080fd5b505092919060200180519060200190929190505050336000806101000a81548173ffffffffffffffffffffffffffffffffffffffff021916908373ffffffffffffffffffffffffffffffffffffffff1602179055508260019080519060200190620001fb9291906200028c565b508160029080519060200190620002149291906200028c565b5080600381905550600354600560008060009054906101000a900473ffffffffffffffffffffffffffffffffffffffff1673ffffffffffffffffffffffffffffffffffffffff1673ffffffffffffffffffffffffffffffffffffffff168152602001908152602001600020819055505050506200033b565b828054600181600116156101000203166002900490600052602060002090601f016020900481019282601f10620002cf57805160ff191683800117855562000300565b8280016001018555821562000300579182015b82811115620002ff578251825591602001919060010190620002e2565b5b5090506200030f919062000313565b5090565b6200033891905b80821115620003345760008160009055506001016200031a565b5090565b90565b610b84806200034b6000396000f3fe608060405260043610610093576000357c010000000000000000000000000000000000000000000000000000000090048063095ea7b31461009857806318160ddd1461010b57806323b872dd1461013657806340c10f19146101c957806342966c681461023c57806370a082311461028f5780637d64bcb4146102f4578063a9059cbb14610323578063dd62ed3e14610396575b600080fd5b3480156100a457600080fd5b506100f1600480360360408110156100bb57600080fd5b81019080803573ffffffffffffffffffffffffffffffffffffffff1690602001909291908035906020019092919050505061041b565b604051808215151515815260200191505060405180910390f35b34801561011757600080fd5b5061012061050d565b6040518082815260200191505060405180910390f35b34801561014257600080fd5b506101af6004803603606081101561015957600080fd5b81019080803573ffffffffffffffffffffffffffffffffffffffff169060200190929190803573ffffffffffffffffffffffffffffffffffffffff16906020019092919080359060200190929190505050610517565b604051808215151515815260200191505060405180910390f35b3480156101d557600080fd5b50610222600480360360408110156101ec57600080fd5b81019080803573ffffffffffffffffffffffffffffffffffffffff1690602001909291908035906020019092919050505061071f565b604051808215151515815260200191505060405180910390f35b34801561024857600080fd5b506102756004803603602081101561025f57600080fd5b81019080803590602001909291905050506107d6565b604051808215151515815260200191505060405180910390f35b34801561029b57600080fd5b506102de600480360360208110156102b257600080fd5b81019080803573ffffffffffffffffffffffffffffffffffffffff1690602001909291905050506108da565b6040518082815260200191505060405180910390f35b34801561030057600080fd5b50610309610923565b604051808215151515815260200191505060405180910390f35b34801561032f57600080fd5b5061037c6004803603604081101561034657600080fd5b81019080803573ffffffffffffffffffffffffffffffffffffffff16906020019092919080359060200190929190505050610973565b604051808215151515815260200191505060405180910390f35b3480156103a257600080fd5b50610405600480360360408110156103b957600080fd5b81019080803573ffffffffffffffffffffffffffffffffffffffff169060200190929190803573ffffffffffffffffffffffffffffffffffffffff169060200190929190505050610ad1565b6040518082815260200191505060405180910390f35b600081600660003373ffffffffffffffffffffffffffffffffffffffff1673ffffffffffffffffffffffffffffffffffffffff16815260200190815260200160002060008573ffffffffffffffffffffffffffffffffffffffff1673ffffffffffffffffffffffffffffffffffffffff168152602001908152602001600020819055508273ffffffffffffffffffffffffffffffffffffffff163373ffffffffffffffffffffffffffffffffffffffff167f8c5be1e5ebec7d5bd14f71427d1e84f3dd0314c0f7b2291e5b200ac8c7c3b925846040518082815260200191505060405180910390a36001905092915050565b6000600354905090565b600081600560008673ffffffffffffffffffffffffffffffffffffffff1673ffffffffffffffffffffffffffffffffffffffff1681526020019081526020016000205411151561056657600080fd5b81600660008673ffffffffffffffffffffffffffffffffffffffff1673ffffffffffffffffffffffffffffffffffffffff16815260200190815260200160002060003373ffffffffffffffffffffffffffffffffffffffff1673ffffffffffffffffffffffffffffffffffffffff168152602001908152602001600020541115156105f057600080fd5b81600560008673ffffffffffffffffffffffffffffffffffffffff1673ffffffffffffffffffffffffffffffffffffffff1681526020019081526020016000206000828254039250508190555081600660008673ffffffffffffffffffffffffffffffffffffffff1673ffffffffffffffffffffffffffffffffffffffff16815260200190815260200160002060003373ffffffffffffffffffffffffffffffffffffffff1673ffffffffffffffffffffffffffffffffffffffff1681526020019081526020016000206000828254039250508190555081600560008573ffffffffffffffffffffffffffffffffffffffff1673ffffffffffffffffffffffffffffffffffffffff16815260200190815260200160002060008282540192505081905550600190509392505050565b60008160036000828254019250508190555081600560008573ffffffffffffffffffffffffffffffffffffffff1673ffffffffffffffffffffffffffffffffffffffff168152602001908152602001600020600082825401925050819055508273ffffffffffffffffffffffffffffffffffffffff167f0f6798a560793a54c3bcfe86a93cde1e73087d944c0ea20544137d4121396885836040518082815260200191505060405180910390a26001905092915050565b600081600560003373ffffffffffffffffffffffffffffffffffffffff1673ffffffffffffffffffffffffffffffffffffffff168152602001908152602001600020541015151561082657600080fd5b81600560003373ffffffffffffffffffffffffffffffffffffffff1673ffffffffffffffffffffffffffffffffffffffff16815260200190815260200160002060008282540392505081905550816003600082825403925050819055503373ffffffffffffffffffffffffffffffffffffffff167fcc16f5dbb4873280815c1ee09dbd06736cffcc184412cf7a71a0fdb75d397ca5836040518082815260200191505060405180910390a260019050919050565b6000600560008373ffffffffffffffffffffffffffffffffffffffff1673ffffffffffffffffffffffffffffffffffffffff168152602001908152602001600020549050919050565b60006001600460006101000a81548160ff0219169083151502179055507fae5184fba832cb2b1f702aca6117b8d265eaf03ad33eb133f19dde0f5920fa0860405160405180910390a16001905090565b600081600560003373ffffffffffffffffffffffffffffffffffffffff1673ffffffffffffffffffffffffffffffffffffffff168152602001908152602001600020541115156109c257600080fd5b60003390508373ffffffffffffffffffffffffffffffffffffffff168173ffffffffffffffffffffffffffffffffffffffff167fddf252ad1be2c89b69c2b068fc378daa952ba7f163c4a11628f55a4df523b3ef856040518082815260200191505060405180910390a382600560008373ffffffffffffffffffffffffffffffffffffffff1673ffffffffffffffffffffffffffffffffffffffff1681526020019081526020016000206000828254039250508190555082600560008673ffffffffffffffffffffffffffffffffffffffff1673ffffffffffffffffffffffffffffffffffffffff16815260200190815260200160002060008282540192505081905550600191505092915050565b6000600660008473ffffffffffffffffffffffffffffffffffffffff1673ffffffffffffffffffffffffffffffffffffffff16815260200190815260200160002060008373ffffffffffffffffffffffffffffffffffffffff1673ffffffffffffffffffffffffffffffffffffffff1681526020019081526020016000205490509291505056fea165627a7a72305820efce610ced327a38ce7d635c3acadcc0954811751467cd2ade5b4221cd72bce90029",
  "source": "pragma solidity >=0.4.21 <0.6.0;\n\ncontract Energy {\n\n    address owner;\n    string name = \"Energy\";\n    string symbol = \"ENE\";\n    uint256 totalCoin;\n    bool mintingFinished = false;\n    \n    mapping (address => uint ) private balance;\n    mapping(address => mapping (address => uint256)) allowed;\n    \n    // indexed in event useful for searching in logs\n    event Transfer(address indexed _from, address indexed _to, uint256 _value);\n    event Approval(address indexed _owner, address indexed _spender, uint256 _value); \n\n    event Mint(address indexed to, uint value);\n    event MintFinished();\n    \n    event Burn(address indexed from, uint256 value);\n     \n    constructor(string memory _name, string memory _symbol, uint256 _totalCoin) public {\n        owner = msg.sender;\n        name = _name;\n        symbol = _symbol;\n        totalCoin = _totalCoin;\n        balance[owner] = totalCoin;\n    }\n    \n    function totalSupply() public view returns (uint256 ) {\n        return totalCoin;\n    }\n    \n    function balanceOf(address _owner) public view returns (uint256 ) {\n        return balance[_owner];\n    }\n    \n    function transfer(address _to, uint256 _value) public returns (bool ) {\n        require( balance[msg.sender] > _value );\n        address _from = msg.sender;\n        emit Transfer(_from, _to, _value);\n        balance[_from] -= _value;\n        balance[_to] += _value;\n        return true;\n    }\n    \n    function transferFrom(address _from, address _to, uint256 _value) public returns (bool ){\n        // [Send _value amount of tokens from address _from to address _to] \n        require(balance[_from] > _value );\n        require(allowed[_from][msg.sender] > _value);\n        balance[_from] -= _value; \n        allowed[_from][msg.sender] -= _value;\n        balance[_to]  += _value;\n        return true;\n    } \n    \n    function approve(address _spender, uint256 _value) public returns (bool ) {\n        // [Allow _spender to withdraw from your account, multiple times, up to the _value amount. \n        // If this function is called again it overwrites the current allowance with _value]\n        allowed[msg.sender][_spender] = _value;\n        emit Approval(msg.sender, _spender, _value);\n        return true;\n    }\n    \n    function allowance(address _owner, address _spender) public view returns (uint256 ) {\n        // [Returns the amount which _spender is still allowed to withdraw from _owner]\n        return allowed[_owner][_spender];\n    }\n \n    /**   \n       * @dev Function to mint tokens\n       * @param _to The address that will recieve the minted tokens.\n       * @param _amount The amount of tokens to mint.\n       * @return A boolean that indicates if the operation was successful.\n       */\n    function mint(address _to, uint _amount) public returns (bool) {\n        totalCoin += _amount;\n        balance[_to] +=_amount;\n        emit Mint(_to, _amount);\n        return true;\n    }\n\n    /**\n       * @dev Function to stop minting new tokens.\n       * @return True if the operation was successful.\n       */\n    function finishMinting() public returns (bool) {\n        mintingFinished = true;\n        emit MintFinished();\n        return true;\n     }\n  \n    function burn(uint256 _value) public returns (bool success) {\n        require(balance[msg.sender] >= _value);   // Check if the sender has enough\n        balance[msg.sender] -= _value;            // Subtract from the sender\n        totalCoin -= _value;                      // Updates totalSupply\n        emit Burn(msg.sender, _value);\n        return true;\n    }    \n}",
  "sourcePath": "/Users/wwarodom/blockchain/solar/contracts/Energy.sol",
  "compiler": {
    "name": "solc",
    "version": "0.5.1+commit.c8a2cb62.Emscripten.clang"
  },
  "schemaVersion": "3.0.11",
  "updatedAt": "2019-08-25T06:11:53.780Z",
  "devdoc": {
    "methods": {
      "finishMinting()": {
        "details": "Function to stop minting new tokens.",
        "return": "True if the operation was successful."
      },
      "mint(address,uint256)": {
        "details": "Function to mint tokens",
        "params": {
          "_amount": "The amount of tokens to mint.",
          "_to": "The address that will recieve the minted tokens."
        },
        "return": "A boolean that indicates if the operation was successful."
      }
    }
  },
  "userdoc": {
    "methods": {}
  }
}