{
  "contractName": "Main",
  "abi": [
    {
      "constant": false,
      "inputs": [],
      "name": "getEnergy",
      "outputs": [
        {
          "name": "",
          "type": "address"
        }
      ],
      "payable": false,
      "stateMutability": "nonpayable",
      "type": "function"
    },
    {
      "constant": false,
      "inputs": [
        {
          "name": "to",
          "type": "address"
        }
      ],
      "name": "test",
      "outputs": [],
      "payable": false,
      "stateMutability": "nonpayable",
      "type": "function"
    },
    {
      "constant": true,
      "inputs": [],
      "name": "getMain",
      "outputs": [
        {
          "name": "",
          "type": "string"
        }
      ],
      "payable": false,
      "stateMutability": "pure",
      "type": "function"
    }
  ],
  "bytecode": "0x608060405234801561001057600080fd5b506113bd806100206000396000f3fe608060405260043610610051576000357c0100000000000000000000000000000000000000000000000000000000900480634dec95fc14610056578063bb29998e146100e6578063c02e705714610137575b600080fd5b34801561006257600080fd5b5061006b61018e565b6040518080602001828103825283818151815260200191508051906020019080838360005b838110156100ab578082015181840152602081019050610090565b50505050905090810190601f1680156100d85780820380516001836020036101000a031916815260200191505b509250505060405180910390f35b3480156100f257600080fd5b506101356004803603602081101561010957600080fd5b81019080803573ffffffffffffffffffffffffffffffffffffffff1690602001909291905050506101cb565b005b34801561014357600080fd5b5061014c6102cf565b604051808273ffffffffffffffffffffffffffffffffffffffff1673ffffffffffffffffffffffffffffffffffffffff16815260200191505060405180910390f35b60606040805190810160405280600d81526020017f4d61696e2066756e6374696f6e00000000000000000000000000000000000000815250905090565b6000809054906101000a900473ffffffffffffffffffffffffffffffffffffffff1673ffffffffffffffffffffffffffffffffffffffff166340c10f198260c86040518363ffffffff167c0100000000000000000000000000000000000000000000000000000000028152600401808373ffffffffffffffffffffffffffffffffffffffff1673ffffffffffffffffffffffffffffffffffffffff16815260200182815260200192505050602060405180830381600087803b15801561029057600080fd5b505af11580156102a4573d6000803e3d6000fd5b505050506040513d60208110156102ba57600080fd5b81019080805190602001909291905050505050565b6000600b6102db6103da565b808060200180602001848152602001838103835260048152602001807f6e616d6500000000000000000000000000000000000000000000000000000000815250602001838103825260038152602001807f73796d00000000000000000000000000000000000000000000000000000000008152506020019350505050604051809103906000f080158015610373573d6000803e3d6000fd5b506000806101000a81548173ffffffffffffffffffffffffffffffffffffffff021916908373ffffffffffffffffffffffffffffffffffffffff1602179055506000809054906101000a900473ffffffffffffffffffffffffffffffffffffffff16905090565b604051610fa7806103eb8339019056fe60806040526040805190810160405280600681526020017f456e65726779000000000000000000000000000000000000000000000000000081525060019080519060200190620000519291906200028c565b506040805190810160405280600381526020017f454e450000000000000000000000000000000000000000000000000000000000815250600290805190602001906200009f9291906200028c565b506000600460006101000a81548160ff021916908315150217905550348015620000c857600080fd5b5060405162000fa738038062000fa783398101806040526060811015620000ee57600080fd5b8101908080516401000000008111156200010757600080fd5b828101905060208101848111156200011e57600080fd5b81518560018202830111640100000000821117156200013c57600080fd5b505092919060200180516401000000008111156200015957600080fd5b828101905060208101848111156200017057600080fd5b81518560018202830111640100000000821117156200018e57600080fd5b505092919060200180519060200190929190505050336000806101000a81548173ffffffffffffffffffffffffffffffffffffffff021916908373ffffffffffffffffffffffffffffffffffffffff1602179055508260019080519060200190620001fb9291906200028c565b508160029080519060200190620002149291906200028c565b5080600381905550600354600560008060009054906101000a900473ffffffffffffffffffffffffffffffffffffffff1673ffffffffffffffffffffffffffffffffffffffff1673ffffffffffffffffffffffffffffffffffffffff168152602001908152602001600020819055505050506200033b565b828054600181600116156101000203166002900490600052602060002090601f016020900481019282601f10620002cf57805160ff191683800117855562000300565b8280016001018555821562000300579182015b82811115620002ff578251825591602001919060010190620002e2565b5b5090506200030f919062000313565b5090565b6200033891905b80821115620003345760008160009055506001016200031a565b5090565b90565b610c5c806200034b6000396000f3fe60806040526004361061009e576000357c010000000000000000000000000000000000000000000000000000000090048063095ea7b3146100a357806318160ddd1461011657806323b872dd1461014157806340c10f19146101d457806342966c681461024757806370a082311461029a5780637d64bcb4146102ff578063a9059cbb1461032e578063d595eefc146103a1578063dd62ed3e14610431575b600080fd5b3480156100af57600080fd5b506100fc600480360360408110156100c657600080fd5b81019080803573ffffffffffffffffffffffffffffffffffffffff169060200190929190803590602001909291905050506104b6565b604051808215151515815260200191505060405180910390f35b34801561012257600080fd5b5061012b6105a8565b6040518082815260200191505060405180910390f35b34801561014d57600080fd5b506101ba6004803603606081101561016457600080fd5b81019080803573ffffffffffffffffffffffffffffffffffffffff169060200190929190803573ffffffffffffffffffffffffffffffffffffffff169060200190929190803590602001909291905050506105b2565b604051808215151515815260200191505060405180910390f35b3480156101e057600080fd5b5061022d600480360360408110156101f757600080fd5b81019080803573ffffffffffffffffffffffffffffffffffffffff169060200190929190803590602001909291905050506107ba565b604051808215151515815260200191505060405180910390f35b34801561025357600080fd5b506102806004803603602081101561026a57600080fd5b8101908080359060200190929190505050610871565b604051808215151515815260200191505060405180910390f35b3480156102a657600080fd5b506102e9600480360360208110156102bd57600080fd5b81019080803573ffffffffffffffffffffffffffffffffffffffff169060200190929190505050610975565b6040518082815260200191505060405180910390f35b34801561030b57600080fd5b506103146109be565b604051808215151515815260200191505060405180910390f35b34801561033a57600080fd5b506103876004803603604081101561035157600080fd5b81019080803573ffffffffffffffffffffffffffffffffffffffff16906020019092919080359060200190929190505050610a0e565b604051808215151515815260200191505060405180910390f35b3480156103ad57600080fd5b506103b6610b6c565b6040518080602001828103825283818151815260200191508051906020019080838360005b838110156103f65780820151818401526020810190506103db565b50505050905090810190601f1680156104235780820380516001836020036101000a031916815260200191505b509250505060405180910390f35b34801561043d57600080fd5b506104a06004803603604081101561045457600080fd5b81019080803573ffffffffffffffffffffffffffffffffffffffff169060200190929190803573ffffffffffffffffffffffffffffffffffffffff169060200190929190505050610ba9565b6040518082815260200191505060405180910390f35b600081600660003373ffffffffffffffffffffffffffffffffffffffff1673ffffffffffffffffffffffffffffffffffffffff16815260200190815260200160002060008573ffffffffffffffffffffffffffffffffffffffff1673ffffffffffffffffffffffffffffffffffffffff168152602001908152602001600020819055508273ffffffffffffffffffffffffffffffffffffffff163373ffffffffffffffffffffffffffffffffffffffff167f8c5be1e5ebec7d5bd14f71427d1e84f3dd0314c0f7b2291e5b200ac8c7c3b925846040518082815260200191505060405180910390a36001905092915050565b6000600354905090565b600081600560008673ffffffffffffffffffffffffffffffffffffffff1673ffffffffffffffffffffffffffffffffffffffff1681526020019081526020016000205411151561060157600080fd5b81600660008673ffffffffffffffffffffffffffffffffffffffff1673ffffffffffffffffffffffffffffffffffffffff16815260200190815260200160002060003373ffffffffffffffffffffffffffffffffffffffff1673ffffffffffffffffffffffffffffffffffffffff1681526020019081526020016000205411151561068b57600080fd5b81600560008673ffffffffffffffffffffffffffffffffffffffff1673ffffffffffffffffffffffffffffffffffffffff1681526020019081526020016000206000828254039250508190555081600660008673ffffffffffffffffffffffffffffffffffffffff1673ffffffffffffffffffffffffffffffffffffffff16815260200190815260200160002060003373ffffffffffffffffffffffffffffffffffffffff1673ffffffffffffffffffffffffffffffffffffffff1681526020019081526020016000206000828254039250508190555081600560008573ffffffffffffffffffffffffffffffffffffffff1673ffffffffffffffffffffffffffffffffffffffff16815260200190815260200160002060008282540192505081905550600190509392505050565b60008160036000828254019250508190555081600560008573ffffffffffffffffffffffffffffffffffffffff1673ffffffffffffffffffffffffffffffffffffffff168152602001908152602001600020600082825401925050819055508273ffffffffffffffffffffffffffffffffffffffff167f0f6798a560793a54c3bcfe86a93cde1e73087d944c0ea20544137d4121396885836040518082815260200191505060405180910390a26001905092915050565b600081600560003373ffffffffffffffffffffffffffffffffffffffff1673ffffffffffffffffffffffffffffffffffffffff16815260200190815260200160002054101515156108c157600080fd5b81600560003373ffffffffffffffffffffffffffffffffffffffff1673ffffffffffffffffffffffffffffffffffffffff16815260200190815260200160002060008282540392505081905550816003600082825403925050819055503373ffffffffffffffffffffffffffffffffffffffff167fcc16f5dbb4873280815c1ee09dbd06736cffcc184412cf7a71a0fdb75d397ca5836040518082815260200191505060405180910390a260019050919050565b6000600560008373ffffffffffffffffffffffffffffffffffffffff1673ffffffffffffffffffffffffffffffffffffffff168152602001908152602001600020549050919050565b60006001600460006101000a81548160ff0219169083151502179055507fae5184fba832cb2b1f702aca6117b8d265eaf03ad33eb133f19dde0f5920fa0860405160405180910390a16001905090565b600081600560003373ffffffffffffffffffffffffffffffffffffffff1673ffffffffffffffffffffffffffffffffffffffff16815260200190815260200160002054111515610a5d57600080fd5b60003390508373ffffffffffffffffffffffffffffffffffffffff168173ffffffffffffffffffffffffffffffffffffffff167fddf252ad1be2c89b69c2b068fc378daa952ba7f163c4a11628f55a4df523b3ef856040518082815260200191505060405180910390a382600560008373ffffffffffffffffffffffffffffffffffffffff1673ffffffffffffffffffffffffffffffffffffffff1681526020019081526020016000206000828254039250508190555082600560008673ffffffffffffffffffffffffffffffffffffffff1673ffffffffffffffffffffffffffffffffffffffff16815260200190815260200160002060008282540192505081905550600191505092915050565b60606040805190810160405280600c81526020017f456e657267792068612068610000000000000000000000000000000000000000815250905090565b6000600660008473ffffffffffffffffffffffffffffffffffffffff1673ffffffffffffffffffffffffffffffffffffffff16815260200190815260200160002060008373ffffffffffffffffffffffffffffffffffffffff1673ffffffffffffffffffffffffffffffffffffffff1681526020019081526020016000205490509291505056fea165627a7a723058203d32204c44072aabfadcce7666332603c3e387b9b85c9264020b3bd775a47d580029a165627a7a723058202fde0b20112af520aa6dc9f42da4a19954498a591abbcb25853660d960438be20029",
  "source": "pragma solidity >=0.4.21 <0.6.0;\n\nimport \"./Energy.sol\";\nimport \"./Thb.sol\";\n\ncontract Main {\n\n    Energy  energy;\n    Thb thb;\n  \n    function getEnergy() public returns (Energy) {\n        energy = new Energy('name','sym', 11);\n        return energy;\n    }\n\n    // function getThb(address addr) public returns (uint) {\n    //     thb = Thb(addr);\n    // }\n\n    function test(address to) public  {\n        energy.mint(to, 200);\n\n    }\n\n    function getMain() public  pure returns (string memory ) {\n        return \"Main function\";\n    }\n\n}\n\n// Main contract address: 0x4a302676A59696e9A2d593f8BA2b887294A36195\n",
  "sourcePath": "/Users/wwarodom/blockchain/solar/contracts/Main.sol",
  "compiler": {
    "name": "solc",
    "version": "0.5.1+commit.c8a2cb62.Emscripten.clang"
  },
  "schemaVersion": "3.0.11",
  "updatedAt": "2019-09-09T04:27:44.963Z",
  "devdoc": {
    "methods": {}
  },
  "userdoc": {
    "methods": {}
  }
}