{
  "contractName": "Test",
  "abi": [
    {
      "constant": true,
      "inputs": [],
      "name": "getString",
      "outputs": [
        {
          "name": "",
          "type": "string"
        }
      ],
      "payable": false,
      "stateMutability": "pure",
      "type": "function"
    }
  ],
  "bytecode": "0x608060405234801561001057600080fd5b50610139806100206000396000f3fe60806040526004361061003b576000357c01000000000000000000000000000000000000000000000000000000009004806389ea642f14610040575b600080fd5b34801561004c57600080fd5b506100556100d0565b6040518080602001828103825283818151815260200191508051906020019080838360005b8381101561009557808201518184015260208101905061007a565b50505050905090810190601f1680156100c25780820380516001836020036101000a031916815260200191505b509250505060405180910390f35b60606040805190810160405280600381526020017f466f6f000000000000000000000000000000000000000000000000000000000081525090509056fea165627a7a72305820563b00bcb23a5f0b51bae82113f44cf87ba3e7582ab2eda00ecf83da8d6bc1df0029",
  "source": "pragma solidity 0.5.1;\ncontract Test {\n\tstring str;\n\tfunction getString() public pure returns (string memory) {\n\t\treturn \"Foo\";\n\t}\n}",
  "sourcePath": "/Users/wwarodom/blockchain/solar/contracts/Test.sol",
  "compiler": {
    "name": "solc",
    "version": "0.5.1+commit.c8a2cb62.Emscripten.clang"
  },
  "schemaVersion": "3.0.11",
  "updatedAt": "2019-09-02T08:36:12.818Z",
  "devdoc": {
    "methods": {}
  },
  "userdoc": {
    "methods": {}
  }
}